:04000000FEEF7FF0A0
:101000000083100200004C454420426F6F740D0AAB
:09101000006C6F6F700D0A000006
:10101A00000E4E6E000E4D6E040E326E000E316ED4
:10102A00CBEC0AF0060E476E100E486E13EC0BF06E
:10103A00000E506E000E4F6E000E2E6E000E2F6EBA
:10104A00FF0EAAEC0AF04F4A502A50BE36EF08F0BB
:10105A00505009E10A0E4F5CD8A036EF08F038EF7D
:10106A0008F021EF08F0A30E4C6E570E4B6E020EDD
:10107A00E82EFED74B2EFCD74C2EFAD700D0040E02
:10108A00326E000E316ECBEC0AF0000E326E140E88
:10109A00316EA0EC09F0010E326E000E316ECBEC0F
:1010AA000AF0000E506E140E4F6E000E4E6E000EB9
:1010BA004D6E7EEF08F04F504D1807E150504E1814
:1010CA00D8A46AEF08F06CEF08F075EF08F0000E8C
:1010DA002E6EFF0E2F6E000EAAEC0AF07CEF08F0BF
:1010EA00000E2E6E000E2F6E000EAAEC0AF04D4A6C
:1010FA004E2A4D504F5C5050800A4B6E4E50800A1B
:10110A004B58D8B08BEF08F08DEF08F060EF08F07D
:10111A0093EC0BF0090E4C6E1E0E4B6EE40EE82E8D
:10112A00FED74B2EFCD74C2EFAD700D04F06D8A0AC
:10113A00500650BEABEF08F0505006E14F04D8B04D
:10114A00A9EF08F0ABEF08F05AEF08F0010E326E83
:10115A00000E316ECBEC0AF0110E476E100E486E7F
:10116A0013EC0BF04AEF08F012006000EFF0D9FF21
:10117A006000F3F0DAFF6F007BFFF6FF6F0077FF86
:10118A00F7FFF86A0800F550250AD8A4CFEF08F04F
:10119A00D1EF08F023EF09F06000EFF0D9FF60000B
:1011AA00F3F0DAFFDE2A000EDD22000E286E000EB2
:1011BA00276E27C02BF028C02CF029682A68600007
:1011CA00EFF0D9FF6000F3F0DAFF6F007BFFF6FF64
:1011DA006F0077FFF7FFF86A0800F550250AD8A4D0
:1011EA00F9EF08F0FBEF08F014EF09F06000EFF0F8
:1011FA00D9FF6000F3F0DAFFDE2A000EDD22000ECE
:10120A00316E250E306E39C032F03AC033F0F9EC47
:10121A0009F0000E3A6E010E396E45EF09F06000D2
:10122A00EFF0D9FF6000F3F0DAFFDE2A000EDD22CC
:10123A00000E3A6E000E396E45EF09F06000EFF0CD
:10124A00D9FF6000F3F0DAFF6F007BFFF6FF6F0053
:10125A0077FFF7FFF86A0800F550306E316A39C037
:10126A0032F03AC033F0F9EC09F06000EFF0D9FF40
:10127A006000F3F0DAFFDE2A000EDD220EEF09F03D
:10128A001200000EBE6E000EBD6E000EBA6E000E8B
:10129A00BB6E040EBC6E070EC66EC2687D0EC36EB0
:1012AA00B10EC46EC5683A017069000E606F7C0E9B
:1012BA00506F070E806F0C0E406F000E716F000E9C
:1012CA00816F000E516F000E416F000E616F000EAC
:1012DA005A6F000E5B6F000E6A6F000E6B6F000E86
:1012EA007A6F000E7B6F000E826F000E426F000E47
:1012FA00526F000E626F000E726F4369FC0E536FDD
:10130A0063697369070E836F446954696469746910
:10131A000F0E846F130EDE6F030E096F1E0E136F0E
:10132A00000ED96F0D0E126F130E166F170EE56FA2
:10133A00140EDF6F1200000E386E000E376E000EAC
:10134A00386E000E376EEDEF09F0000E366E000EA5
:10135A00356ECEEF09F03750351807E13850361898
:10136A00D8A4BAEF09F0BCEF09F0C5EF09F0000EF6
:10137A002E6EFF0E2F6E000EAAEC0AF0CCEF09F0CB
:10138A00000E2E6E000E2F6E000EAAEC0AF0354AE1
:10139A00362A3550375C3850800A336E3650800A08
:1013AA003358D8B0DBEF09F0DDEF09F0B0EF09F000
:1013BA0093EC0BF0090E346E1E0E336EE40EE82E1B
:1013CA00FED7332EFCD7342EFAD700D0374A382A24
:1013DA003150375C32503858D8A0F6EF09F0F8EFA0
:1013EA0009F0AAEF09F0120032503310D8B400EF16
:1013FA000AF002EF0AF00BEF0AF032503310D8A4C9
:10140A0009EF0AF00BEF0AF010EF0AF030509CECEB
:10141A000BF043EF0AF020EE04F03250D926335095
:10142A00DA22DE50DE10D8B41DEF0AF01FEF0AF000
:10143A003AEF0AF020EE04F03250D9263350DA227D
:10144A0010EE02F03250E1263350E222DE50E65C22
:10145A00E650800A386EDE50800A3858D8B038EF25
:10146A000AF03AEF0AF043EF0AF020EE02F03250A7
:10147A00D9263350DA22DE2A000EDD221200000EAF
:10148A003D01EC6F000EED6F000EEE6F000EEF6F78
:10149A00000EF06F000EF16FB00EF26F800EF36F58
:1014AA00000EF46F8A0EF56F000EF66F000EF76FDE
:1014BA00000EF86F000EF96F000EFA6F000E2E6E16
:1014CA00000E2F6EA6EC0BF0000E2E6E000E2F6E85
:1014DA00A1EC0BF0000E2E6E000E2F6EABEC0BF093
:1014EA00000E2D6E120041C045F042C046F0000EBB
:1014FA00266E000E256E94EF0AF03FC039F040C008
:10150A003AF0450E3B6E000E3C6E43C03DF044C0BF
:10151A003EF0BAEC08F0395025263A5026226000EF
:10152A0017F1F6FF60001BF1F7FFF86A0800F550A3
:10153A000009D8A4A3EF0AF0A5EF0AF082EF0AF097
:10154A0025C03FF026C040F01200306E6000BBF0AC
:10155A0011FD3D0117ABB4EF0AF0B6EF0AF0AEEF9A
:10156A000AF06000C3F011FD17ABBEEF0AF0C0EF3E
:10157A000AF0B9EF0AF06000BFF011FD17ABC8EF2F
:10158A000AF0CAEF0AF0C3EF0AF01200000E346E36
:10159A00000E336EDAEF0AF0000E2E6E000E2F6E7A
:1015AA00000EAAEC0AF0334A342A3150335C325026
:1015BA003458D8A0E3EF0AF0E5EF0AF0D1EF0AF0C9
:1015CA0093EC0BF01200010E3C01616F180E626F72
:1015DA002C0E636F2B0E646F000E656F050E666F1F
:1015EA00100E676F080E686F200E696F800E606FAD
:1015FA00120038EC0BF0000E216E000E226E000E67
:10160A00236E000E246E000E3A01706F000EC56E36
:10161A000DEC08F00DEF0BF0FEEF7FF0490E496E6E
:10162A00000E4A6E000E3F6E000E406E47C041F03B
:10163A0048C042F0490E436E000E446E78EC0AF040
:10164A001200000E3901C06F000EC16F000EC26F8A
:10165A00000EC36F000EC46F000EC56F000EC66F7A
:10166A00000EC76F120026EC0BF046EC09F07EEC78
:10167A000BF0E8EC0AF072EC0BF049EC0BF044ECDE
:10168A000AF065EC0BF01200010EAE6E200EAD6E84
:10169A00000EAF6E090EAB6E000EAA6E3901A4954C
:1016AA00800EAC6E12002E6E3901A3A95FEF0BF00B
:1016BA0061EF0BF059EF0BF06000BBF0EAFD12008E
:1016CA00830E3D01146F100E156F020E166F050E74
:1016DA001C6F000E196FC4961200800E6E6E040EF7
:1016EA006D6EC00E6C6E3F015F51FC0B01095F6F9E
:1016FA001200600E3901D96F000EDB6F000EDD6F2C
:10170A00080EDF6F000EDE6F120000EE01F02D0EE4
:10171A00EE6AE806FDE10001FEEF0AF0070E2E6E02
:10172A003A0EE82EFED72E2EFCD700D012002F6ECE
:10173A002F5058EC0BF012002EC053F02FC054F06B
:10174A0012002EC055F02FC056F012002EC051F0D4
:06175A002FC052F0120046
:04FFFC008AEF0BF08D
:020000040020DA
:10000000FF0FFF0FFF0FFF0FFF0FFF0FFF0FFF0F80
:020000040030CA
:0A0000008CFFF7FF9FFFFFFFFFFFDB
:00000001FF
