:04000000FEEF7FF0A0
:101000000083100200004C454420426F6F740D0AAB
:09101000006C6F6F700D0A000006
:10101A006000EFF0D9FF6000F3F0DAFF6F007BFFAA
:10102A00F6FF6F0077FFF7FFF86A0800F550250A08
:10103A00D8A422EF08F024EF08F076EF08F0600059
:10104A00EFF0D9FF6000F3F0DAFFDE2A000EDD22AE
:10105A00000E286E000E276E27C02BF028C02CF039
:10106A0029682A686000EFF0D9FF6000F3F0DAFF20
:10107A006F007BFFF6FF6F0077FFF7FFF86A080043
:10108A00F550250AD8A44CEF08F04EEF08F067EFA8
:10109A0008F06000EFF0D9FF6000F3F0DAFFDE2A13
:1010AA00000EDD22000E316E250E306E39C032F090
:1010BA003AC033F04CEC09F0000E3A6E010E396E6C
:1010CA0098EF08F06000EFF0D9FF6000F3F0DAFF64
:1010DA00DE2A000EDD22000E3A6E000E396E98EFFF
:1010EA0008F06000EFF0D9FF6000F3F0DAFF6F005C
:1010FA007BFFF6FF6F0077FFF7FFF86A0800F550ED
:10110A00306E316A39C032F03AC033F04CEC09F033
:10111A006000EFF0D9FF6000F3F0DAFFDE2A000E7C
:10112A00DD2261EF08F01200000EBE6E000EBD6EE9
:10113A00000EBA6E000EBB6E040EBC6E070EC66EB3
:10114A00C2687D0EC36EB10EC46EC5683A0170697D
:10115A00000E606F7C0E506F070E806F0C0E406F92
:10116A00000E716F000E816F000E516F000E416FFD
:10117A00000E616F000E5A6F000E5B6F000E6A6FF1
:10118A00000E6B6F000E7A6F000E7B6F000E826F7F
:10119A00000E426F000E526F000E626F000E726FE9
:1011AA004369FC0E536F63697369070E836F446961
:1011BA005469646974690F0E846F130EDE6F030E2F
:1011CA00096F1E0E136F000ED96F0D0E126F130EDC
:1011DA00166F170EE56F140EDF6F1200000E386ED1
:1011EA00000E376E000E386E000E376E40EF09F0B3
:1011FA00000E366E000E356E21EF09F037503518A5
:10120A0007E138503618D8A40DEF09F00FEF09F0AE
:10121A0018EF09F0000E2E6EFF0E2F6E000E43EC33
:10122A000AF01FEF09F0000E2E6E000E2F6E000E50
:10123A0043EC0AF0354A362A3550375C3850800A72
:10124A00336E3650800A3358D8B02EEF09F030EF9B
:10125A0009F003EF09F02CEC0BF0090E346E1E0EA8
:10126A00336EE40EE82EFED7332EFCD7342EFAD78F
:10127A0000D0374A382A3750315C38503258D8B003
:10128A0049EF09F04BEF09F0FDEF08F01200325078
:10129A003310D8B453EF09F055EF09F05EEF09F0B7
:1012AA0032503310D8A45CEF09F05EEF09F063EF17
:1012BA0009F0305035EC0BF096EF09F020EE04F00F
:1012CA003250D9263350DA22DE50DE10D8B470EF0D
:1012DA0009F072EF09F08DEF09F020EE04F03250B8
:1012EA00D9263350DA2210EE02F03250E12633507A
:1012FA00E222DE50E65CE650800A386EDE50800A52
:10130A003858D8B08BEF09F08DEF09F096EF09F055
:10131A0020EE02F03250D9263350DA22DE2A000EAD
:10132A00DD221200000E4E6E000E4D6E000E326E61
:10133A00150E316E64EC0AF0060E476E100E486EFA
:10134A00ACEC0AF0000E506E000E4F6EFF0E2E6EC1
:10135A00000E2F6E000E43EC0AF04F4A502A50BE80
:10136A00C0EF09F0505009E1150E4F5CD8A0C0EF4C
:10137A0009F0C2EF09F0ABEF09F0520E4C6E2B0EDA
:10138A004B6E000EE82EFED74B2EFCD74C2EFAD70A
:10139A0000D0000E326E150E316EF3EC08F0110E0D
:1013AA00476E100E486EACEC0AF0CEEF09F0120050
:1013BA00000E3D01EC6F000EED6F000EEE6F000E99
:1013CA00EF6F000EF06F000EF16FB00EF26F800E2D
:1013DA00F36F000EF46F8A0EF56F000EF66F000EB3
:1013EA00F76F000EF86F000EF96F000EFA6F000E1D
:1013FA002E6E000E2F6E3FEC0BF0000E2E6E000EBE
:10140A002F6E3AEC0BF0000E2E6E000E2F6E44EC8F
:10141A000BF0000E2D6E120041C045F042C046F09E
:10142A00000E266E000E256E2DEF0AF03FC039F031
:10143A0040C03AF0450E3B6E000E3C6E43C03DF094
:10144A0044C03EF00DEC08F0395025263A502622C9
:10145A00600017F1F6FF60001BF1F7FFF86A080059
:10146A00F5500009D8A43CEF0AF03EEF0AF01BEF52
:10147A000AF025C03FF026C040F01200306E60002E
:10148A00BBF011FD3D0117AB4DEF0AF04FEF0AF02B
:10149A0047EF0AF06000C3F011FD17AB57EF0AF0EF
:1014AA0059EF0AF052EF0AF06000BFF011FD17ABD6
:1014BA0061EF0AF063EF0AF05CEF0AF01200000E27
:1014CA00346E000E336E73EF0AF0000E2E6E000EAD
:1014DA002F6E000E43EC0AF0334A342A3150335C43
:1014EA0032503458D8A07CEF0AF07EEF0AF06AEF47
:1014FA000AF02CEC0BF01200010E3C01616F180E81
:10150A00626F2C0E636F2B0E646F000E656F050EF3
:10151A00666F100E676F080E686F200E696F800E77
:10152A00606F1200D1EC0AF0000E216E000E226EDE
:10153A00000E236E000E246E000E3A01706F000E2C
:10154A00C56E97EC09F0A6EF0AF0FEEF7FF0490EA0
:10155A00496E000E4A6E000E3F6E000E406E47C086
:10156A0041F048C042F0490E436E000E446E11EC41
:10157A000AF01200000E3901C06F000EC16F000E92
:10158A00C26F000EC36F000EC46F000EC56F000E4F
:10159A00C66F000EC76F1200BFEC0AF099EC08F094
:1015AA0017EC0BF081EC0AF00BEC0BF0E2EC0AF012
:1015BA00DDEC09F0FEEC0AF01200010EAE6E200E10
:1015CA00AD6E000EAF6E090EAB6E000EAA6E39013B
:1015DA00A495800EAC6E12002E6E3901A3A9F8EF05
:1015EA000AF0FAEF0AF0F2EF0AF06000BBF0EAFD47
:1015FA001200830E3D01146F100E156F020E166F46
:10160A00050E1C6F000E196FC4961200800E6E6EC6
:10161A00040E6D6EC00E6C6E3F015F51FC0B01092A
:10162A005F6F1200600E3901D96F000EDB6F000E7A
:10163A00DD6F080EDF6F000EDE6F120000EE01F0A4
:10164A002D0EEE6AE806FDE1000197EF0AF0070E9B
:10165A002E6E3A0EE82EFED72E2EFCD700D01200A0
:10166A002F6E2F50F1EC0AF012002EC053F02FC04B
:10167A0054F012002EC055F02FC056F012002EC0A2
:08168A0051F02FC052F01200D4
:04FFFC0023EF0BF0F4
:020000040020DA
:10000000FF0FFF0FFF0FFF0FFF0FFF0FFF0FFF0F80
:020000040030CA
:0A0000008CFFF7FF9FFFFFFFFFFFDB
:00000001FF
